{
  "_format": "hh-sol-artifact-1",
  "contractName": "DocumentRegistry",
  "sourceName": "contracts/DocumentRegistry.sol",
  "abi": [
    {
      "anonymous": false,
      "inputs": [
        {
          "indexed": true,
          "internalType": "address",
          "name": "user",
          "type": "address"
        },
        {
          "indexed": false,
          "internalType": "string",
          "name": "cid",
          "type": "string"
        },
        {
          "indexed": false,
          "internalType": "uint256",
          "name": "timestamp",
          "type": "uint256"
        }
      ],
      "name": "DocumentRegistered",
      "type": "event"
    },
    {
      "inputs": [],
      "name": "getUsername",
      "outputs": [
        {
          "internalType": "string[]",
          "name": "",
          "type": "string[]"
        }
      ],
      "stateMutability": "view",
      "type": "function"
    },
    {
      "inputs": [
        {
          "internalType": "string",
          "name": "cid",
          "type": "string"
        }
      ],
      "name": "registerUsername",
      "outputs": [],
      "stateMutability": "nonpayable",
      "type": "function"
    }
  ],
  "bytecode": "0x608060405234801561001057600080fd5b5061086e806100206000396000f3fe608060405234801561001057600080fd5b50600436106100365760003560e01c806336a941341461003b578063681f3e6d14610057575b600080fd5b610055600480360381019061005091906102c9565b610075565b005b61005f610145565b60405161006c9190610468565b60405180910390f35b6000803373ffffffffffffffffffffffffffffffffffffffff1673ffffffffffffffffffffffffffffffffffffffff1681526020019081526020016000208282909180600181540180825580915050600190039060005260206000200160009091929091929091929091925091826100ee9291906106da565b503373ffffffffffffffffffffffffffffffffffffffff167f9e96b0e7627747bba4f711879b55bf1fa8a10042d49bbaf1dc1a54656ff4a96683834260405161013993929190610806565b60405180910390a25050565b60606000803373ffffffffffffffffffffffffffffffffffffffff1673ffffffffffffffffffffffffffffffffffffffff168152602001908152602001600020805480602002602001604051908101604052809291908181526020016000905b828210156102515783829060005260206000200180546101c4906104f3565b80601f01602080910402602001604051908101604052809291908181526020018280546101f0906104f3565b801561023d5780601f106102125761010080835404028352916020019161023d565b820191906000526020600020905b81548152906001019060200180831161022057829003601f168201915b5050505050815260200190600101906101a5565b50505050905090565b600080fd5b600080fd5b600080fd5b600080fd5b600080fd5b60008083601f84011261028957610288610264565b5b8235905067ffffffffffffffff8111156102a6576102a5610269565b5b6020830191508360018202830111156102c2576102c161026e565b5b9250929050565b600080602083850312156102e0576102df61025a565b5b600083013567ffffffffffffffff8111156102fe576102fd61025f565b5b61030a85828601610273565b92509250509250929050565b600081519050919050565b600082825260208201905092915050565b6000819050602082019050919050565b600081519050919050565b600082825260208201905092915050565b60005b8381101561037c578082015181840152602081019050610361565b60008484015250505050565b6000601f19601f8301169050919050565b60006103a482610342565b6103ae818561034d565b93506103be81856020860161035e565b6103c781610388565b840191505092915050565b60006103de8383610399565b905092915050565b6000602082019050919050565b60006103fe82610316565b6104088185610321565b93508360208202850161041a85610332565b8060005b85811015610456578484038952815161043785826103d2565b9450610442836103e6565b925060208a0199505060018101905061041e565b50829750879550505050505092915050565b6000602082019050818103600083015261048281846103f3565b905092915050565b600082905092915050565b7f4e487b7100000000000000000000000000000000000000000000000000000000600052604160045260246000fd5b7f4e487b7100000000000000000000000000000000000000000000000000000000600052602260045260246000fd5b6000600282049050600182168061050b57607f821691505b60208210810361051e5761051d6104c4565b5b50919050565b60008190508160005260206000209050919050565b60006020601f8301049050919050565b600082821b905092915050565b6000600883026105867fffffffffffffffffffffffffffffffffffffffffffffffffffffffffffffffff82610549565b6105908683610549565b95508019841693508086168417925050509392505050565b6000819050919050565b6000819050919050565b60006105d76105d26105cd846105a8565b6105b2565b6105a8565b9050919050565b6000819050919050565b6105f1836105bc565b6106056105fd826105de565b848454610556565b825550505050565b600090565b61061a61060d565b6106258184846105e8565b505050565b5b818110156106495761063e600082610612565b60018101905061062b565b5050565b601f82111561068e5761065f81610524565b61066884610539565b81016020851015610677578190505b61068b61068385610539565b83018261062a565b50505b505050565b600082821c905092915050565b60006106b160001984600802610693565b1980831691505092915050565b60006106ca83836106a0565b9150826002028217905092915050565b6106e4838361048a565b67ffffffffffffffff8111156106fd576106fc610495565b5b61070782546104f3565b61071282828561064d565b6000601f831160018114610741576000841561072f578287013590505b61073985826106be565b8655506107a1565b601f19841661074f86610524565b60005b8281101561077757848901358255600182019150602085019450602081019050610752565b868310156107945784890135610790601f8916826106a0565b8355505b6001600288020188555050505b50505050505050565b600082825260208201905092915050565b82818337600083830152505050565b60006107d683856107aa565b93506107e38385846107bb565b6107ec83610388565b840190509392505050565b610800816105a8565b82525050565b600060408201905081810360008301526108218185876107ca565b905061083060208301846107f7565b94935050505056fea26469706673582212203e83e03e51e42976feb1ac26ffdfd6567412d69b9b5e3e7edb2e79541436c06464736f6c63430008110033",
  "linkReferences": {},
  "deployedLinkReferences": {}
}