{
  "_format": "hh-sol-artifact-1",
  "contractName": "DocumentRegistry",
  "sourceName": "contracts/DocumentRegistry.sol",
  "abi": [
    {
      "anonymous": false,
      "inputs": [
        {
          "indexed": true,
          "internalType": "uint256",
          "name": "id",
          "type": "uint256"
        },
        {
          "indexed": true,
          "internalType": "address",
          "name": "owner",
          "type": "address"
        },
        {
          "indexed": false,
          "internalType": "string",
          "name": "ipfsCID",
          "type": "string"
        }
      ],
      "name": "DocumentRegistered",
      "type": "event"
    },
    {
      "inputs": [
        {
          "internalType": "uint256",
          "name": "",
          "type": "uint256"
        }
      ],
      "name": "docs",
      "outputs": [
        {
          "internalType": "address",
          "name": "owner",
          "type": "address"
        },
        {
          "internalType": "string",
          "name": "ipfsCID",
          "type": "string"
        },
        {
          "internalType": "uint256",
          "name": "timestamp",
          "type": "uint256"
        }
      ],
      "stateMutability": "view",
      "type": "function"
    },
    {
      "inputs": [],
      "name": "nextId",
      "outputs": [
        {
          "internalType": "uint256",
          "name": "",
          "type": "uint256"
        }
      ],
      "stateMutability": "view",
      "type": "function"
    },
    {
      "inputs": [
        {
          "internalType": "string",
          "name": "cid",
          "type": "string"
        }
      ],
      "name": "registerDocument",
      "outputs": [],
      "stateMutability": "nonpayable",
      "type": "function"
    }
  ],
  "bytecode": "0x6080604052348015600f57600080fd5b5061095e8061001f6000396000f3fe608060405234801561001057600080fd5b50600436106100415760003560e01c806323389c5a146100465780634847a4701461007857806361b8ce8c14610094575b600080fd5b610060600480360381019061005b919061032c565b6100b2565b60405161006f93929190610439565b60405180910390f35b610092600480360381019061008d91906104dc565b610184565b005b61009c6102e6565b6040516100a99190610529565b60405180910390f35b60016020528060005260406000206000915090508060000160009054906101000a900473ffffffffffffffffffffffffffffffffffffffff16908060010180546100fb90610573565b80601f016020809104026020016040519081016040528092919081815260200182805461012790610573565b80156101745780601f1061014957610100808354040283529160200191610174565b820191906000526020600020905b81548152906001019060200180831161015757829003601f168201915b5050505050908060020154905083565b6000806000815480929190610198906105d3565b91905055905060405180606001604052803373ffffffffffffffffffffffffffffffffffffffff16815260200184848080601f016020809104026020016040519081016040528093929190818152602001838380828437600081840152601f19601f820116905080830192505050505050508152602001428152506001600083815260200190815260200160002060008201518160000160006101000a81548173ffffffffffffffffffffffffffffffffffffffff021916908373ffffffffffffffffffffffffffffffffffffffff160217905550602082015181600101908161028291906107f6565b50604082015181600201559050503373ffffffffffffffffffffffffffffffffffffffff16817f1d2b9633d2192d7b9e9a9a6e9e300883f5db72f460179d8c148af1c05936ddbe85856040516102d9929190610904565b60405180910390a3505050565b60005481565b600080fd5b600080fd5b6000819050919050565b610309816102f6565b811461031457600080fd5b50565b60008135905061032681610300565b92915050565b600060208284031215610342576103416102ec565b5b600061035084828501610317565b91505092915050565b600073ffffffffffffffffffffffffffffffffffffffff82169050919050565b600061038482610359565b9050919050565b61039481610379565b82525050565b600081519050919050565b600082825260208201905092915050565b60005b838110156103d45780820151818401526020810190506103b9565b60008484015250505050565b6000601f19601f8301169050919050565b60006103fc8261039a565b61040681856103a5565b93506104168185602086016103b6565b61041f816103e0565b840191505092915050565b610433816102f6565b82525050565b600060608201905061044e600083018661038b565b818103602083015261046081856103f1565b905061046f604083018461042a565b949350505050565b600080fd5b600080fd5b600080fd5b60008083601f84011261049c5761049b610477565b5b8235905067ffffffffffffffff8111156104b9576104b861047c565b5b6020830191508360018202830111156104d5576104d4610481565b5b9250929050565b600080602083850312156104f3576104f26102ec565b5b600083013567ffffffffffffffff811115610511576105106102f1565b5b61051d85828601610486565b92509250509250929050565b600060208201905061053e600083018461042a565b92915050565b7f4e487b7100000000000000000000000000000000000000000000000000000000600052602260045260246000fd5b6000600282049050600182168061058b57607f821691505b60208210810361059e5761059d610544565b5b50919050565b7f4e487b7100000000000000000000000000000000000000000000000000000000600052601160045260246000fd5b60006105de826102f6565b91507fffffffffffffffffffffffffffffffffffffffffffffffffffffffffffffffff82036106105761060f6105a4565b5b600182019050919050565b7f4e487b7100000000000000000000000000000000000000000000000000000000600052604160045260246000fd5b60008190508160005260206000209050919050565b60006020601f8301049050919050565b600082821b905092915050565b6000600883026106ac7fffffffffffffffffffffffffffffffffffffffffffffffffffffffffffffffff8261066f565b6106b6868361066f565b95508019841693508086168417925050509392505050565b6000819050919050565b60006106f36106ee6106e9846102f6565b6106ce565b6102f6565b9050919050565b6000819050919050565b61070d836106d8565b610721610719826106fa565b84845461067c565b825550505050565b600090565b610736610729565b610741818484610704565b505050565b5b818110156107655761075a60008261072e565b600181019050610747565b5050565b601f8211156107aa5761077b8161064a565b6107848461065f565b81016020851015610793578190505b6107a761079f8561065f565b830182610746565b50505b505050565b600082821c905092915050565b60006107cd600019846008026107af565b1980831691505092915050565b60006107e683836107bc565b9150826002028217905092915050565b6107ff8261039a565b67ffffffffffffffff8111156108185761081761061b565b5b6108228254610573565b61082d828285610769565b600060209050601f831160018114610860576000841561084e578287015190505b61085885826107da565b8655506108c0565b601f19841661086e8661064a565b60005b8281101561089657848901518255600182019150602085019450602081019050610871565b868310156108b357848901516108af601f8916826107bc565b8355505b6001600288020188555050505b505050505050565b82818337600083830152505050565b60006108e383856103a5565b93506108f08385846108c8565b6108f9836103e0565b840190509392505050565b6000602082019050818103600083015261091f8184866108d7565b9050939250505056fea26469706673582212206c6f15719a4be1c8440505583074d027dacd9b6ecf12639296ad4f589bd6d0dd64736f6c634300081c0033",
  "linkReferences": {},
  "deployedLinkReferences": {}
}